:020000040800F2
:10000000E00C00201905000815050008150500087A
:10001000150500081505000815050008000000007A
:1000200000000000000000000000000015050008AE
:10003000150500080000000015050008150500085A
:100040001505000815050008150500081505000828
:100050001505000815050008150500081505000818
:100060001505000815050008150500081505000808
:1000700015050008150500081505000815050008F8
:1000800015050008150500081505000815050008E8
:10009000150500081505000815050008A111000840
:1000A00015050008150500081505000815050008C8
:1000B00015050008150500081505000815050008B8
:1000C00015050008150500081505000815050008A8
:1000D0001505000815050008150500081505000898
:1000E00015050008150500081505000800000000AA
:1000F0000000000000000000000000000000000000
:1001000000000000000000005FF808F103889BB2C7
:10011000244A904212D002F5006290420ED0B0F113
:10012000804F0BD0A2F59832904207D002F5806242
:10013000904203D002F58062904203D123F0700315
:100140004A881343184A904225D002F580629042B3
:1001500021D023F440739BB2CA88134303808B8859
:1001600083850B8803850F4B98420FD003F50063FE
:1001700098420BD003F54063984207D003F58063A3
:10018000984203D003F58063984201D10B7A03862D
:1001900001238382704703808B8883850B880385C6
:1001A000F6E700BF002C01400010004070B4038C43
:1001B00023F001031B041B0C0384028C8588ADB261
:1001C000038B23F073031B041B0C0E881E4322F0C9
:1001D00002021204120C0B894C8823431A4393B277
:1001E000144A90420FD002F5006290420BD002F503
:1001F0004062904207D002F58062904203D002F53F
:10020000806290420ED123F008034A89134323F001
:1002100004038A88134325F440758C89CA892243D4
:100220001543ADB285800683CA888286038470BC7C
:10023000704700BF002C014030B4038C23F0100342
:100240001B041B0C0384038C8588ADB2028B22F443
:10025000E6421204120C0C8842EA042294B223F003
:1002600020031B041B0C0A8943EA02134A8843EA51
:1002700002139BB2114A904203D002F500629042F1
:1002800015D123F080039BB24A8943EA02124FF64C
:10029000BF7313408A8843EA02139BB225F440657A
:1002A0008A8945EA8205CA8945EA8205ADB2858018
:1002B0000483CA880287038430BC7047002C014045
:1002C00030B4038C23F480731B041B0C0384038C55
:1002D0008488A4B2828B22F073021204120C0D885F
:1002E000154323F400731B041B0C0A8943EA022301
:1002F0004A8843EA02239BB2114A904203D002F596
:100300000062904215D123F400639BB24A8943EA0C
:1003100002224FF6FF3313408A8843EA02239BB23E
:1003200024F440548A8944EA0214CA8944EA021433
:10033000A4B284808583CA888287038430BC7047D6
:10034000002C01400A884B8813438A881343CA88CB
:1003500013430A8913434A8913438A8913439BB27F
:10036000A0F84430704700BF29B103889BB243F026
:10037000010303807047038823F001031B041B0C57
:100380000380704749B1B0F844306FEA43436FEAE5
:1003900053439BB2A0F844307047B0F84430C3F3E5
:1003A0000E03A0F84430704730B4048CA5B2012489
:1003B0008C4025EA04040484038C8A4013439BB2D6
:1003C000038430BC704700BF30B400F11805038CC3
:1003D0009CB201238B4024EA0303038421F0080329
:1003E0009BB243B949084B5923F070034B514B5909
:1003F0001A434A510BE00439C1F34E014B5923F41F
:10040000E0434B514B59120292B21A434A5130BC4D
:10041000704700BF82B03B4B1A6842F001021A607D
:100420005968394A0A405A601A6822F0847222F4E4
:1004300080321A601A6822F480221A605A6822F404
:10044000FE025A604FF41F029A600022009201924D
:100450001A6842F480321A601A46136803F40033B3
:100460000193009B01330093019B1BB9009BB3F5E3
:10047000A06FF2D1234B1B6813F4003F14BF01237C
:1004800000230193019B012B36D1204B1A6842F0C7
:1004900010021A601A6822F003021A601A6842F009
:1004A00002021A60A3F580535A685A605A685A606B
:1004B0005A6842F480625A605A6822F47C125A6088
:1004C0005A6842F4E8125A601A6842F080721A6060
:1004D0001A46136813F0007FFBD00A4B5A6822F0CB
:1004E00003025A605A6842F002025A601A46536880
:1004F00003F00C03082BFAD14FF00062044B9A6012
:1005000002B07047001002400000FFF800200240D7
:1005100000ED00E0FEE700BF08B50F4B0F4A9A421E
:100520000CD2581E801A20F0030004300C4B1844E3
:1005300053F8041B42F8041B8342F9D109480A49C5
:100540004FF000028842B8BF40F8042BFADBFFF7F7
:1005500061FF00F029F908BD8C0800200000002090
:10056000403400088C080020DC080020F0B5CB786F
:1005700003F00F0613F0100F1CBF8B781E430B788F
:10058000F3B10568002301274FF00F0C07FA03F2BF
:100590000C8832EA04040FD19C000CFA04FE25EA10
:1005A0000E0506FA04F42543CC78282C01D14261CB
:1005B00002E0482C08BF02610133082BE6D1056038
:1005C0000B88FF2B20D94568002301274FF00F0E21
:1005D00003F1080207FA02F20C8832EA04040FD190
:1005E0009C000EFA04FC25EA0C0506FA04F42543E7
:1005F000CC78282C08BF4261CC78482C08BF026117
:100600000133082BE4D14560F0BD00BF8368194277
:1006100014BF012000207047806880B2704700BF7F
:10062000016170470AB1016170474161704700BFC5
:1006300010B401F003039B0001F0FC0101F18041C3
:1006400001F580318C680F229A4024EA02028A6008
:100650008A6898401043886010BC704710B500F05D
:1006600013F94FF4803000F02FF900F02BFA012835
:1006700020D1002000F068F9002000F079F94FF453
:10068000806000F06BF94FF4E0114FF4803000F01F
:1006900039F9012000F040F93924204600F0FEF934
:1006A0000028FAD0022000F03DF900F045F90828B2
:1006B000FBD110BDFEE700BF70B592B0002000F086
:1006C00061F9012140F2092000F0CCF9012108462E
:1006D00000F0BAF901240494002503950B952D4BE5
:1006E00002934FF480630893802306932023099399
:1006F000294B01934FF48073079305954FF40053F2
:100700000A93264E01A9304600F07AFB2146304676
:1007100000F096FB0223ADF844308DF8475011A944
:100720001F48FFF723FF8DF835400F954FF46023E6
:100730000E930C958DF840408DF83440194D0CA95E
:10074000284600F035FA072322460921284600F002
:100750008BFA2146284600F04FFA2146284600F041
:1007600057FA284600F060FA2C46204600F062FA5C
:100770000028FAD10B4800F061FA0A4C204600F03C
:1007800063FA0028FAD10121064800F061FA12B09C
:1007900070BD00BF000000204C2401400800024052
:1007A000000C014000240140F0B583B0FFF756FF74
:1007B000FFF782FF00F076FD0121082000F052F9DA
:1007C0000125ADF8045048238DF8073002238DF839
:1007D0000630284C01A92046FFF7C8FE29462046CE
:1007E000FFF71EFF00F08EFD234800F075FD234E3D
:1007F000234F351D3488A4B223463A463221284679
:1008000000F0F2FD284600F067FD40F27E439C4276
:1008100024D900F0EBFB80B901211648FFF7F6FE62
:1008200018B1012000F0E8FB02E0022000F0E4FB38
:1008300000F0D2FB80B200F0E5FB204600F0D4FCD3
:10084000044603460F4A3221284600F0CDFD2846D3
:1008500000F042FD204600F0E3FCCBE700F0C6FBD1
:100860000028C7D040F241439C42C3D800F0E0FCCE
:10087000C0E700BF000C01404C330008000000201E
:1008800068330008783300080D4B1A6842F0010203
:100890001A6059680B4A0A405A601A6822F084723A
:1008A00022F480321A601A6822F480221A605A6890
:1008B00022F4FE025A604FF41F029A60704700BF94
:1008C000001002400000FFF80D4B1A6822F480323D
:1008D0001A601A6822F480221A60B0F5803F03D0B3
:1008E000B0F5802F06D07047054A136843F4803373
:1008F00013607047024A136843F4A02313607047E3
:1009000000100240034A536823F47C131943084340
:100910005060704700100240014B1860704700BFE4
:1009200060004242034A536823F0030318435060B7
:10093000704700BF00100240024B586800F00C00E6
:10094000704700BF00100240034A536823F0F003D1
:1009500018435060704700BF00100240034A5368BC
:1009600023F4E06318435060704700BF001002405A
:10097000034A536823F4605343EAC0005060704751
:1009800000100240034A536823F440431843506068
:10099000704700BF0010024010B4274B5B6803F0A3
:1009A0000C03042B05D0082B06D0F3B9234B0360AE
:1009B0001DE0224B03601AE01F4A53685268C3F3DC
:1009C0008343023312F4803F04D11D4A02FB03F338
:1009D00003600CE0184A526812F4003F14BF184A32
:1009E000164A02FB03F3036001E0144B0360124A52
:1009F0005368C3F30313134CE35CD9B20368CB40D1
:100A000043605168C1F30221615CC9B223FA01F16C
:100A100081605168C1F3C221615CC9B2CB40C3603F
:100A20005268C2F381322244127CD2B2B3FBF2F399
:100A3000036110BC704700BF0010024000127A0032
:100A400000093D003800002021B1054B5A691043D0
:100A500058617047024A536923EA000050617047A9
:100A60000010024021B1054B9A691043986170470C
:100A7000024A936923EA0000906170470010024027
:100A800021B1054BDA691043D8617047024AD36936
:100A900023EA0000D0617047001002404309012B97
:100AA00002D1074B1B6804E0022B054B0CBF1B6AED
:100AB0005B6A00F01F0023FA00F000F001007047AD
:100AC0000010024010B582B000230193312420466B
:100AD000FFF7E4FF019B01330193019BB3F5A06F86
:100AE00001D00028F3D03120FFF7D8FF003018BF25
:100AF000012002B010BD00BF8379002B34D010B4A8
:100B0000204B1A68016822EA01021A605A680168DB
:100B100022EA01025A60027902F1804202F5823231
:100B200014680168214311609A68016822EA010291
:100B30009A60DA68016822EA0102DA604379102BD0
:100B400009D1104B996802680A439A60D968026813
:100B50000A43DA6013E003F1804303F58233196836
:100B600002680A431A600AE0037903F1804303F53F
:100B700082331A68016822EA01021A60704710BCC9
:100B8000704700BF00040140054B1A685B691842BA
:100B900004D0024214BF012000207047002070479B
:100BA00000040140014B5861704700BF0004014040
:100BB00010B4436823F4702222F480720B6813434C
:100BC0000A7943EA022343608468CA688B681A433F
:100BD000084B234013434A7943EA42038360C36AC4
:100BE00023F470020B7C013BDBB242EA0353C36285
:100BF00010BC7047FDF7F1FF21B1836843F001039A
:100C000083607047836823F001038360704700BFEF
:100C100021B1836843F4807383607047836823F451
:100C200080738360704700BF836843F0080383606C
:100C3000704700BF8068C0F3C0007047836843F00E
:100C400004038360704700BF8068C0F38000704772
:100C500021B1836843F4A00383607047836823F461
:100C6000A0038360704700BF70B409290DD9C6681E
:100C7000A1F10A0404EB44040725A54026EA050572
:100C800003FA04F42C43C4600AE0066901EB410452
:100C90000725A54026EA050503FA04F42C43046160
:100CA000062A0CD8446B013A02EB82021F239340C0
:100CB00024EA030301FA02F21A4342631AE00C2AFF
:100CC0000CD8046B073A02EB82021F23934024EAFC
:100CD000030301FA02F21A4302630BE0C46A0D3AFD
:100CE00002EB82021F23934024EA030301FA02F27B
:100CF0001A43C26270BC704730B587B004460D46D7
:100D0000038A9BB223F44053CA8813430382828927
:100D100092B289882B890B4369890B4322F4B05224
:100D200022F00C0213439BB28381838A9BB223F48B
:100D30004073AA891343838201A8FFF72DFE1A4B43
:100D40009C420CBF049B039BA28912F4004F03EB4F
:100D5000830303EB8303296814BF49008900B3FBB5
:100D6000F1F1124BA3FB012358090501642300FB99
:100D70001313A28912F4004F09D0D90032310B4A63
:100D8000A2FB0131C1F3421242EA050307E01B0155
:100D90003233064AA2FB0323C3F343132B439BB214
:100DA000238107B030BD00BF003801401F85EB51E3
:100DB00029B183899BB243F40053838170478389AF
:100DC00023F400531B041B0C83817047C1F30801FB
:100DD000818070470388194214BF012000207047AA
:100DE0000346054A126812B90449034A1160024ACF
:100DF00010680344136070478C080020DC08002052
:100E000010B4036823F4FF4323F070038C680A6A6C
:100E100014430A6914434A6914438A691443CA692A
:100E200014434A6A14438A6A224313430360CB681B
:100E300043600B6883604B68C36010BC704700BFA1
:100E400021B1036843F0010303607047036823F096
:100E500001031B041B0C0360704700BF70B584B016
:100E600001210920FFF7FEFD4FF46076ADF80C601C
:100E700048238DF80F3002238DF80E3003A9154852
:100E8000FFF774FB17238DF8003000258DF8015013
:100E90008DF8025001248DF80340684600F072FA84
:100EA00007212046FFF7C4FB08212046FFF7C0FBBF
:100EB00009212046FFF7BCFB01968DF80A408DF80A
:100EC000085010238DF8093001A8FFF715FE04B073
:100ED00070BD00BF000C014070B58CB001210C202A
:100EE000FFF7C0FD4FF46043ADF82C3003248DF8BC
:100EF0002E4010238DF82F300BA93448FFF736FB16
:100F00004FF4E063ADF82C308DF82E4018238DF8A7
:100F10002F300BA92E48FFF729FB01214FF4006069
:100F2000FFF7A0FD0024ADF82040ADF8224041F2CB
:100F30009413ADF82430ADF826408DF82840254DA7
:100F400008A92846FFF7E2F8ADF810400126ADF8F1
:100F50001260ADF81440ADF81640ADF81840ADF889
:100F60001A40ADF81C40ADF81E4004A92846FFF712
:100F70001DF904A92846FFF75FF904A92846FFF7E1
:100F80009FF94FF40063ADF800304FF48063ADF883
:100F90000230ADF804404823ADF806304FF48043EA
:100FA000ADF80C304FF48053ADF80830ADF80A407E
:100FB00069462846FFF7C6F931462846FFF7D4F9B7
:100FC00031462846FFF7DEF90CB070BD000C014039
:100FD00000080140002C014008B50348FFF71CFB46
:100FE000C0F3C21008BD00BF000C0140014B1878CF
:100FF000704700BF90080020014B1870704700BF79
:101000009008002010B5624B1B78012B604A00EB62
:101010004000604B03EB40030CBF186853F8300FDF
:1010200050609B8813815A4B1B7923B900221146CB
:101030005948FFF7B9F9564B5B792BB901224FF4A8
:1010400000515648FFF7EEFA514B9B7923B9002225
:1010500004215148FFF7A8F94D4BDB792BB9012248
:101060004FF480414D48FFF7DDFA494B1B7A23B915
:10107000002208214848FFF797F9454B5B7A2BB9C6
:1010800001224FF400414548FFF7CCFA404A53791A
:10109000117B002B08BF00290CBF0123002312790C
:1010A00013420AD03C4C602200212046FFF78CF905
:1010B000012200212046FFF777F9354A1379517B49
:1010C000002B08BF00290CBF0123002352791342D3
:1010D00005D000224FF400513048FFF7A3FA2C4A04
:1010E000D379917B002B08BF00290CBF012300237B
:1010F000927913420AD0284C602204212046FFF73F
:1011000063F9012204212046FFF74EF9204A937922
:10111000D17B002B08BF00290CBF01230023D2790B
:10112000134205D000224FF480411C48FFF77AFAA1
:10113000174A537A117C002B08BF00290CBF0123EA
:101140000023127A13420AD0134C60220821204651
:10115000FFF73AF9012208212046FFF725F90C4A4A
:10116000137A517C002B08BF00290CBF01230023F8
:10117000527A134205D000224FF400410748FFF78E
:1011800051FA034B1A1D92E80300D860198210BD72
:101190009008002084330008002C0140000C01401E
:1011A00010B58020FFF7F0FC04464FF48070FFF785
:1011B000EBFC2043C4B24FF40070FFF7E5FC204382
:1011C00010F0FF0F0FD08020FFF7ECFC4FF4807081
:1011D000FFF7E8FC4FF40070FFF7E4FCFFF7FCFEBC
:1011E00080B2FFF70FFF10BD40F2414398420FD984
:1011F000B0F57A6F0ED8A0F2424041F2941303FB8F
:1012000000F0064BA3FB0030C00A503880B2704794
:101210000020704741F29510704700BF8DF0F5B780
:10122000024B988618879887704700BF002C0140B2
:1012300008B51020FFF7F4FF08BD00BF10B500206F
:10124000FFF7EEFF154C002211462046FFF7ACF8E1
:10125000002204212046FFF7A7F80022082120469B
:10126000FFF7A2F8A4F5005401224FF400512046E4
:10127000FFF7D8F901224FF480412046FFF7D2F959
:1012800001224FF400412046FFF7CCF90449002227
:101290000B4603F80C2BCA609A8010BD002C01404D
:1012A0009008002010B5FFF7D9FDFFF715FE094C97
:1012B000602200212046FFF787F8602204212046A3
:1012C000FFF782F8602208212046FFF77DF8FFF73C
:1012D000B5FF10BD002C014070B5461E084C4025DE
:1012E00008E02046FFF772FD29462046FFF772FD11
:1012F0000028F9D016F8011F0029F2D170BD00BFF7
:101300000044004030B587B001210420FFF7AAFB5C
:1013100001214FF40030FFF7B3FB0425ADF8145062
:1013200018238DF8173003238DF81630144C05A9B7
:101330002046FFF71BF90823ADF814308DF817503D
:1013400005A92046FFF712F94FF4E133019300237A
:10135000ADF80830ADF80A30ADF80C30ADF810300B
:101360000C23ADF80E30A4F544440DEB05012046E6
:10137000FFF7C2FC01212046FFF71AFD07B030BD80
:1013800000080140C378FBB1154BDA68D243C2F3C1
:101390000222C2F10401437803FA01F10F23D34082
:1013A000827813400B4302781B01DBB20D490A44DB
:1013B00082F800330378580903F01F03012202FA70
:1013C00003F341F82030704703785A0903F01F03F4
:1013D000012101FA03F32032024941F8223070471B
:1013E00000ED00E000E100E00CB4F0B5234B002973
:1013F0009DB01D683CDB4FF402730C4602900690D2
:10140000ADF814304FF6FF7723AE15D04C1E229A5C
:10141000334602A9284604940794ADF81670019645
:1014200000F0AEF8421C19DB029B00221A701DB0BE
:10143000BDE8F04002B070473346229A02A9284620
:1014400004940794ADF81670019600F099F8431CC7
:1014500007DB1DB0BDE8F04002B070478B232B6066
:10146000E2E78B232B601DB0BDE8F04002B070476F
:101470008B232B604FF0FF30EBE700BF7804002098
:101480002DE9F04F936883B09046002B72D04FF057
:1014900000090D464C468346166808688B68002C88
:1014A00045D09C421F469A4646D3AB8913F4906FB1
:1014B0002DD06F69296907EB4707C1EB000A07EBDD
:1014C000D777601C7F105044B8423A4684BF074625
:1014D0003A465B0533D51146584600F0ADFF00286B
:1014E00037D052462969019001F098FAAA89019BE8
:1014F00022F4906242F08002AA81CAEB070203EB59
:101500000A006F61A24627462B612860AA605246F6
:10151000494601F0F9FAD8F80820AB682868DB1BC7
:101520005044141BAB602860C8F8084014B3D6F8C8
:10153000009074680836B2E72746A246E7E75846A7
:1015400001F04AFB03460028D7D12969584600F02C
:101550008BFE0C23CBF80030AB89002243F0400314
:101560004FF0FF30AB81C8F80820C8F8042003B062
:10157000BDE8F08F0020C8F8040003B0BDE8F08F8C
:101580002DE9F04FADB00C460391898993460D06C5
:101590000893069003D52369002B00F09F850DF179
:1015A000700AD0460023049311931093CDF83CA009
:1015B0009BF800305C46EBB1252B02D11AE0252BBD
:1015C00003D014F8013F002BF9D1CBEB04058DB10A
:1015D000109B119A01332A44072BC8F800B0C8F8B1
:1015E00004501192109300F3598408F10808049BE9
:1015F0002B4404932378002B00F0EB834FF000037F
:1016000000218DF8373004F1010B637808460F464E
:101610000C464FF0FF3201920BF1010BA3F12002B7
:10162000582A00F2E382DFE812F04301E102E1020E
:10163000D900E102E102E102E102E102E102590026
:101640004B01E1026100C402E102BF02B102B1023A
:10165000B102B102B102B102B102B102B102E102C2
:10166000E102E102E102E102E102E102E102E10262
:10167000E1029802E102E102E102E102E102E1029B
:10168000E102E102E102E1027602E102E102E102AD
:10169000E102E1025302E102E1023E02E102E10263
:1016A000E102E102E102E102E102E102E102E10222
:1016B000DA019A01E102E102E10295019A01E102F7
:1016C000E1028801E10274019D0066006F01E10200
:1016D0005001E1020D01E102E102DE00089A134629
:1016E00014680433002C089302DA644247F00407BC
:1016F0009BF8003090E74FF0000308988DF83730E2
:10170000034630218DF8381001997822002907947A
:101710008DF83920046803F104034FF0000547F009
:101720000202C0F29C8427F0800242F0020754EAD1
:101730000502089300F00884C2484FF0000956469D
:10174000230943EA0573290904F00F020D461C46DC
:10175000835C06F8013D54EA0503F1D1C6EB0A03A8
:10176000059398E00794002940F0148517F02003B2
:1017700000F0DB814FF00002089B8DF83720073323
:1017800023F0070303F10802D3E90045019B089207
:10179000002B05DB54EA050327F0800700F04B829D
:1017A0004FF000095646E20842EA4572E90804F0A3
:1017B00007030D461446303354EA050206F8013D8E
:1017C000F1D1F907CAD5302BC8D03022731E06F8E4
:1017D000012CC3EB0A0205921E465CE047F00107AC
:1017E0009BF8003018E70794002940F0D784BE0624
:1017F000944840F16081089A073222F0070202F112
:1018000008010891D2E9004517F0010900F0728340
:1018100054EA050200F0C1838DF839304FF000031F
:1018200030228DF83820019A8DF83730002A47F0A1
:101830000203C0F27A8427F0800343F002074FF0DE
:1018400000097CE70794002940F09C8417F02003EE
:1018500000F048814FF00002089B8DF837200733D5
:1018600023F0070303F10802D3E90045019B089226
:10187000002BC0F2DB8354EA050327F080074FF00A
:10188000000940F08E80019B002B40F0DA83564621
:10189000002301930593019B059A9342B8BF134619
:1018A0000293B9F1000F00F0AC8001330293A8E07D
:1018B0009BF8003000287FF4AFAE01212020ABE67A
:1018C0009BF8003001212B20A6E64FF00003089A78
:1018D000079416688DF83730141D019B002E00F018
:1018E000ED83002BC0F2DF831A460021304601F061
:1018F0004FF8002800F02484831B059300230894EC
:101900009DF837900193C6E747F020079BF8003019
:1019100082E6002940F03A84BA0600F16383FB06B0
:1019200000F187837F0640F18483089A13680432AC
:101930000892BDF810201A803AE69BF800306C2B14
:1019400003BF9BF8013047F020070BF1010B47F074
:10195000100761E647F040079BF800305CE607940B
:10196000002940F02284BC0640F10081089907312B
:1019700021F00701D1E9002314461D4608310891E2
:10198000002A73F10003C0F2F082019B9DF83790AA
:10199000002BC0F2C38254EA050327F080073FF40E
:1019A00072AF002D08BF0A2CC0F0BC8256462046FC
:1019B00029460A22002301F039FB303206F8012DB6
:1019C0002046294600230A2201F030FB04460D463A
:1019D00054EA0503EBD1C6EB0A0305935BE7089ACB
:1019E0004FF00000136801218DF84830134604338E
:1019F000079402918DF837000893059112AE0023E9
:101A0000019317F00203099302D0029B0233029361
:101A100017F084030A9340F02081079B029A9C1AD6
:101A2000002C40F31A81102C1199109A064D2CDDD0
:101A30000B9640464FF01009B846039E2F46069D70
:101A400009E000BF08340008E4330008103C102C03
:101A500000F1080015DD01321031072A11911092B2
:101A600080E88002F2DD0FAA31462846FFF708FD24
:101A7000002840F0B581103C102C50461199109A66
:101A8000E9DC3D46474680460B9E531C2144072B0C
:101A900011911093C8F80050C8F8044000F3D480A6
:101AA00008F10808DBE00794002940F08B83BE06AC
:101AB000AB483FF5A0AE0899FD060A4600F16882E2
:101AC0007C0640F1658204320C88089200259BE672
:101AD0000794002940F06D8347F0100717F02003AA
:101AE0007FF4B8AE17F0100200F0898208998DF8E3
:101AF00037300A460C680199043200294FF000057E
:101B0000C0F2188354EA050127F08007089299462D
:101B10007FF447AFB7E60794002940F04D8347F0C4
:101B2000100717F020037FF425AE17F0100200F025
:101B30003F8208998DF837300A460C6801990432C3
:101B400000294FF00005C0F2F88254EA050127F0A1
:101B5000800708926FD0994624E60794002940F048
:101B60002E8347F01007BC063FF500AF089AF80631
:101B7000134600F1EF81790640F1EC81B2F90040A3
:101B80000433E517089322462B46F9E6A3F1300209
:101B900000241BF8013B04EB840402EB4404A3F192
:101BA0003002092AF5D939E547F080079BF8003063
:101BB00032E59BF800300BF101052A2B00F0CC82B6
:101BC000A3F13002092AAB4698BF002500F2C0827B
:101BD0001BF8013B05EB850502EB4505A3F130023F
:101BE000092AF5D945EAE572019217E5079400291B
:101BF00040F0D882002B00F0EC808DF848304FF098
:101C00000003012202928DF83730059212AEF6E6FB
:101C1000089A8DF8379013461468019A0433002A05
:101C20004FF00005C0F2738254EA050227F08007E6
:101C300008937FF4B7AD019B002B00F05C82002479
:101C400000254FF00009ADE50FAA03990698FFF7AC
:101C500017FC002840F0C480D0461199109B9DF8D5
:101C600037206AB1013301310DF137000122072B12
:101C70001191109388E8050000F3258108F1080808
:101C8000099A62B1013302310EA80222072B119189
:101C9000109388E8050000F3218108F108080A9AEA
:101CA000802A00F0A980019A0598141A002C38DDCA
:101CB000102C2C4D28DD019640464FF01009B846F7
:101CC0001A462F46039E069D04E0103C102C00F19E
:101CD000080014DD01321031072A1191109280E8BA
:101CE0008002F2DD0FAA31462846FFF7C9FB002823
:101CF00076D1103C102C50461199109AEADC3D46E2
:101D0000134647468046019E01332144072B11911B
:101D10001093C8F80050C8F8044000F3C98008F1D7
:101D20000808059801330144072B11911093C8F856
:101D30000060C8F8040000F39F8008F108087A07E3
:101D400038D5079B029A9C1A002C33DD102C109B6F
:101D5000054D24DD1026069FDDF80C900BE000BF3A
:101D6000F433000824340008E4330008103C102C3D
:101D700008F1080813DD01331031072B119110937E
:101D800088E86000F2DD0FAA49463846FFF778FB85
:101D900030BB103C102CD0461199109BEBDC01336A
:101DA0002144072B11911093C8F80050C8F8044043
:101DB00000F3C080049B079A02988242ACBF9B1834
:101DC0001B180493002961D100231093D046FFF71C
:101DD000EFBB119B23B106980FAA0399FFF750FBA5
:101DE000039B9B8913F0400F049B18BF4FF0FF33F8
:101DF00018462DB0BDE8F08F079A0298141A002CEF
:101E00007FF751AF102CB24D28DD099640464FF0B8
:101E10001009B8461A462F46039E069D04E0103C62
:101E2000102C00F1080014DD01321031072A119145
:101E3000109280E88002F2DD0FAA31462846FFF7B3
:101E40001FFB0028CCD1103C102C50461199109A41
:101E5000EADC3D46134647468046099E013321444D
:101E6000072B11911093C8F80050C8F8044000F3F4
:101E7000EA8008F1080816E70FAA03990698FFF709
:101E8000FFFA0028ACD1D046119958E70FAA039960
:101E90000698FFF7F5FA002896D0A1E70FAA039954
:101EA0000698FFF7EDFA00289AD1D046FFF79FBBBE
:101EB0000FAA03990698FFF7E3FA002890D1D046BD
:101EC0001199109B2DE70FAA03990698FFF7D8FAEE
:101ED000002885D1D0461199109BD1E60FAA03990D
:101EE0000698FFF7CDFA00287FF47AAFD046119913
:101EF000109BD4E6019B8DF83790002BC0F2BC807C
:101F000054EA050327F080077FF419AC019BFBB16D
:101F1000002400254FF0000911E4089354EA05035A
:101F20007FF43FAD2CAE303406F8414DC6EB0A03CA
:101F30000593B0E40FAA03990698FFF7A1FA0028C9
:101F40007FF44EAF119935E7019B6248002BDFD13A
:101F500099469CE41C680433E517224608932B46F7
:101F6000002A73F10003BFF610AD019B64424FF0ED
:101F70002D0965EB4505002B8DF83790FFF611AD67
:101F8000002D08BF0A2C27F08007BFF40FADC9E76A
:101F9000146804320892002536E44FF000038DF8EF
:101FA0003730019B002BC0F2BD8027F08007ADE7E2
:101FB00017F040093FF42CAE08998DF837200B46F6
:101FC0000C880199043300294FF00005C0F29F806E
:101FD00054EA050127F0800708933FF42CAE9146A0
:101FE000FFF7E0BB089A134604330893049B11687B
:101FF000DD171A462B46C1E90023FFF7D9BA17F0BF
:1020000040093BD008998DF837200B460C88019980
:10201000043300294FF000057CDB54EA050127F06A
:102020008007089391467FF4BCAC2CE44FF0000984
:1020300074E7089A136804320892049A1A60FFF74A
:10204000B7BA00246EE70FAA03990698FFF718FAAB
:1020500000287FF4C5AED0461199109B23E61746A1
:102060001C4854EA050208934FF000097FF467AB5F
:1020700000240025FFF763BB089BF2E7089A8DF860
:10208000379013461468019A0433002A4FF0000574
:10209000FFF643AF54EA050227F0800708937FF468
:1020A00080ACFFF7F0BB3046089400F091FF0023AE
:1020B00005909DF837900193FFF7EDBB062B28BFE5
:1020C0000623059323EAE37308940293024E96E4F1
:1020D00024340008083400081C340008402100F0B3
:1020E000ABF9039A10601061002845D0039A402391
:1020F0005361FFF754BA9946FB070ED52CAE302337
:1021000006F8413DC6EB0A030593FFF7C4BB0893ED
:10211000FFF746BB0893914600E7019B564605939F
:10212000FFF7B9BB4FF00009A2E71F464FF00009C7
:10213000FFF705BB08929946F0E60892FFF730BB1F
:10214000019B0894059301909DF83790FFF7A3BB7E
:1021500000220192FFF762BA089A13680432002B3A
:10216000019308929BF80130AB46BFF655AA4FF099
:10217000FF320192FFF750BA069A0C2313604FF01A
:10218000FF3036E68DF83700FFF760BB8DF837007B
:10219000FFF7C2BB8DF83700FFF7E8BA8DF83700BC
:1021A000FFF725BB8DF8370024E58DF83700FFF7E2
:1021B000DABB8DF837008FE48DF83700AFE48DF887
:1021C0003700CEE48DF8370071E400BFF8B50C4657
:1021D000224F064600F0FCFCBB685D6825F0030555
:1021E000291B01F6EF7121F47F6121F00F01A1F5A8
:1021F0008054B4F5805F07DB0021304600F0D6FE46
:10220000BB682B44984204D0304600F0E3FC002029
:10221000F8BD6142304600F0C9FE01300DD0104BD0
:10222000BA6819682D1B45F001053046091B556039
:10223000196000F0CFFC0120F8BD0021304600F00D
:10224000B5FEBA68831A0F2BDEDD064C04492468FC
:1022500043F00103001B53600860D5E77C040020B5
:10226000B008002088080020002945D02DE9F04161
:102270000D46804600F0ACFC55F8047C6A49A5F197
:10228000080427F00103E2188E685068B24220F07B
:10229000030062D0FE0750600BD455F8087C01F1B2
:1022A000080EE41BA5683B4475456FD0E768EF60F6
:1022B000BD6015186D68ED0742D543F001026260FC
:1022C000E350B3F5007F18D2DB0848689D10012267
:1022D000013351F8337002FA05F501EBC3022843CC
:1022E000083AE260A760486041F83340FC6040462D
:1022F000BDE8F04100F06EBC70475A0A042A53D87A
:102300009A0902F139077F0002F1380501EB8700D5
:1023100051F827200838904243494DD0516821F0A8
:1023200003018B4202D292689042F7D1D068E060FC
:10233000A2608460D4604046BDE8F04100F04ABC31
:1023400095683A4F0344BD423FD0D06843F0010244
:10235000E86085606260E350B3E7FF07034407D499
:1023600055F8085C641BE268A0682B44C26090606A
:102370002F4A43F001001268606093428C60B6D32C
:102380002C4B40461968FFF721FFB0E71118496848
:10239000C90744D491680344D26843F00100CA607D
:1023A00091606060E350A2E7142A17D802F15C073D
:1023B0007F0002F15B05A9E7AA104B68012505FA29
:1023C00002F213434B600246B1E743F001024C6155
:1023D0000C61E560A5606260E35088E7542A06D886
:1023E0001A0B02F16F077F0002F16E058EE7B2F55E
:1023F000AA7F06D8DA0B02F178077F0002F1770591
:1024000084E740F25450824206D89A0C02F17D07CC
:102410007F0002F17C0579E7FE277E2576E743F011
:1024200001026260E35062E77C0400208404002023
:1024300084080020AC0800202DE9F04F01F10B05C5
:10244000162D83B0064640F2A08035F0070500F156
:10245000C080A94200F2BD8000F0BAFBB5F5FC7F58
:10246000C0F090826B0A00F0BB80042B00F27781F1
:10247000A80900F1390E4FEA4E013830BE4F07EB84
:1024800081014C680839A14207D1AEE0002A80F2F0
:10249000AE80E468A14200F0A880636823F00303E3
:1024A0005A1B0F2AF2DDB4493C6901F1080E74454C
:1024B00000F0A881636823F003035A1B0F2A00F37E
:1024C0008E81002AC1F814E0C1F810E080F29380F8
:1024D000B3F5007F80F05C81DB084A684FEAA3090E
:1024E0004FF0010C013351F833800CFA09F901EB7C
:1024F000C30C49EA0202ACF1080CC4F80CC0C4F8E1
:1025000008804A6041F83340C8F80C408310012429
:102510009C4094427CD8144206D120F00300640011
:10252000144200F10400FAD007EBC009CC46804603
:10253000DCF80C108C4507D166E1002A80F274812A
:10254000C9688C4500F060814B6823F003035A1B77
:102550000F2AF2DD0C46CB6854F808CF45F001088D
:10256000C1F804800D4442F00101CCF80C30304633
:10257000C3F808C07D613D61C5F80CE0C5F808E00E
:102580006960AA5000F026FB1FE0102921D800F056
:102590001FFB102506230220774F07EB83035C689F
:1025A000A3F10802944200F038816368E16823F0E7
:1025B000030323445A68A56842F00102E9603046EB
:1025C0008D605A6000F006FB0834204603B0BDE879
:1025D000F08F002420460C23336003B0BDE8F08F59
:1025E00080214FF0400E3F2048E770465BE72344D0
:1025F0005A68E168DFE723445A68304642F0010236
:102600005A60083400F0E6FA204603B0BDE8F08FC7
:10261000BC68636823F00308A84504D3C5EB08032E
:102620000F2B00F38C80554BDFF860911A68D9F8B6
:1026300000302A44013304EB080A00F0608102F5FF
:1026400080520F3222F47F6222F00F021146304690
:10265000019200F0ABFCB0F1FF3F8346019A00F01D
:102660005881824500F2FC80454BDA4519681144D7
:10267000196000F05381D9F80000DFF810E1013053
:102680001BBFCAEB0B0A5144CEF800B019601BF017
:10269000070100F01781C1F10800C1F580518344A2
:1026A00008315A44C2F30B02C2EB010949463046D5
:1026B000019300F07BFC431C019B00F03F81CBEBBE
:1026C00000024A4442F001021968BC424944C7F87A
:1026D00008B01960CBF80420DFF8A49016D0B8F148
:1026E0000F0F40F2FD806268A8F10C0323F007038E
:1026F00002F00102E0184FF0050E1A430F2B626042
:10270000C0F804E0C0F808E000F21C811D4BBC6872
:102710001A68914288BF19601B4B1A68914262681F
:1027200088BF196022F003029542A2EB050301D88D
:102730000F2B04DC304600F04DFA002445E745F04D
:10274000010243F00103254462603046BD60083455
:102750006B6000F03FFA204603B0BDE8F08F142B09
:1027600071D9542B00F2A480280B00F16F0E4FEAB0
:102770004E016E3082E600BF7C040020AC080020D1
:10278000B0080020A8080020A40800208808002025
:102790005A0A042A5ED9142A00F2B38002F15C01BD
:1027A00049005B3207EB810C57F82110ACF1080CA3
:1027B0008C45DFF8D88100F088804A6822F0030257
:1027C000934202D289688C45F7D1D1F80CC07A685F
:1027D000C4F80CC0A160CCF80840CC6096E645F087
:1027E000010742F001032544676030464D610D61E9
:1027F000C5F80CE0C5F808E06B60AA50083400F09A
:10280000E9F9E2E64A6881E608F1010818F0030FE9
:102810000CF1080C7FF48CAE30E0DC68A34208BFFA
:1028200002303FF440AEC0E60C460B445A68C9681B
:1028300054F8085F42F001025A603046E9608D604A
:1028400000F0C8F9C1E603F15C0E03F15B004FEA4A
:102850004E0113E69A0902F1390149003832A1E725
:10286000BC424A4B3FF400AF9C68626822F003020E
:102870005AE759F80839994540F0828010F0030F63
:1028800000F1FF30F5D17B6823EA04037B6064002C
:102890009C423FF6BDAE002C3FF4BAAE1C4240460F
:1028A0007FF442AE64001C4200F10400FAD03BE623
:1028B000B3F5AA7F18D8E80B00F1780E4FEA4E0165
:1028C0007730DBE54FF48051EBE60121D8F8043096
:1028D000921001FA02F21A43C8F80420614677E721
:1028E0000123CBF8043025E740F25452934220D81C
:1028F000A80C00F17D0E4FEA4E017C30BEE510328F
:10290000A4E6542A26D81A0B02F16F0149006E3250
:1029100048E7BC68626822F0030205E7CAF30B00CF
:1029200000287FF4A8AE4244BB6842F001025A601E
:10293000ECE6FE214FF07F0E7E209FE501224FF056
:102940000009C1E604F108013046FFF78DFCD9F813
:102950000010DBE6B2F5AA7F05D8DA0B02F17801A8
:10296000490077321EE740F254518A4205D89A0C4A
:1029700002F17D0149007C3214E7FE217E2211E73D
:102980007B6884E7E808431C5B0005E67C040020C4
:10299000830770B4CDB23DD0531E02B30278AA4271
:1029A0001ED0421C04E0D3B10478013BAC4217D0E6
:1029B00012F0030F104602F10102F4D1032B11D8DB
:1029C00053B30278AA420BD00344421C02E00178C0
:1029D000A94205D09342104602F10102F7D100202E
:1029E00070BC704704460E0206F47F462E4346EA4A
:1029F0000646226820467240A2F1013121EA020215
:102A000012F0803F04F10404DBD1043B032B204689
:102A1000EFD8D5E71346D1E71846E1E7844641EA07
:102A2000000313F0030349D1403A23D30B6803603A
:102A30004B6843608B688360CB68C3600B6903613C
:102A40004B6943618B698361CB69C3610B6A036224
:102A50004B6A43628B6A8362CB6AC3620B6B03630C
:102A60004B6B43638B6B8363CB6BC36340304031F1
:102A7000403ADBD230320BD30B6803604B684360C3
:102A80008B688360CB68C36010301031103AF3D28A
:102A90000C3205D351F8043B40F8043B043AF9D218
:102AA000043208D0D2071CBF11F8013B00F8013BEB
:102AB00001D30B8803806046704700BF082A13D3F8
:102AC0008B07B1D010F00303AED0C3F10403D21AC8
:102AD000DB071CBF11F8013B00F8013BA4D331F820
:102AE000023B20F8023B9FE7043AD9D3013A11F8A0
:102AF000013B00F8013BF9D20B7803704B7843702F
:102B00008B788370604670478842F0B50DD98B187A
:102B100098420AD28118002A51D09A1A13F8014D0E
:102B2000934201F8014DF9D1F0BD0F2A48D941EA8D
:102B300000039B0746D1154600F1100401F1100374
:102B400053F8106C103D44F8106C53F80C6C0F2DBA
:102B500044F80C6C53F8086C04F1100444F8186C39
:102B600053F8046C03F1100344F8146CE8D8A2F194
:102B7000100323F00F0302F00F0E1033BEF1030F0A
:102B80001944034421D90E4674461D1F56F8047B90
:102B9000043C032C45F8047FF8D8AEF1040424F07B
:102BA000030404342344214402F0030262B1013BD4
:102BB0000A4411F8014B8A4203F8014FF9D1F0BDE4
:102BC0000346F3E70346F2E7F0BD7246EEE700BFC7
:102BD000704700BF704700BF2DE9F04F174683B024
:102BE000002900F08F800D46814607F10B04FFF7A6
:102BF000EFFF55F804EC162C2EF00306A5F108089B
:102C00003CD810221446A7423DD8964242DAC64B21
:102C100008EB060099688842416800F0D78021F0EF
:102C2000010303445B68DB074CD51EF0010F00F085
:102C30009D8039464846FFF7FFFB074600283AD0FB
:102C400055F8043CA0F1080223F0010343449A42E2
:102C500000F03E81321F242A00F22B81132A00F259
:102C6000FF8003462A4611681960516859609268CE
:102C70009A6029464846FFF7F7FA1CE024F007045B
:102C8000002C2246BFDA0C230020C9F8003003B024
:102C9000BDE8F08F2F46331B0F2BD8F804201DD82A
:102CA00002F00102324308EB0601C8F804204B6829
:102CB00043F001034B604846FFF78CFF384603B0F2
:102CC000BDE8F08F21F003013144914220DBC3685D
:102CD00082682F46D3600E469A60DCE702F001025C
:102CE00008EB0401144343F00102C8F804400B440C
:102CF0004A605A68083142F001025A604846FFF7BC
:102D0000B3FAD8E7114603B0BDE8F04FFFF794BB24
:102D10001EF0010F8DD155F8083CC3EB080ADAF814
:102D2000043023F0030C01EB0C0E964526DB5746CE
:102D3000C3688168321FCB60996057F8081FDAF8C2
:102D40000C30242ACB60996000F2C980132A40F22B
:102D500092802B681B2ACAF808306B68CAF80C30BE
:102D600000F2CD8008350AF1100385E055F8083CE3
:102D7000C3EB080ADAF8043023F0030C06EB0C036B
:102D80009342FFF656AF5746DAF80C1057F8080F83
:102D9000321F242AC160886000F2AA80132A40F200
:102DA000A58029681B2ACAF808106968CAF80C109F
:102DB00000F2BC8008350AF1100229681E46116035
:102DC0006968D0465160AB68936064E721F0030BFB
:102DD00004F11000B344834557DA1EF0010F7FF46D
:102DE00028AF55F8081CC1EB080ADAF8041021F0E6
:102DF000030CE3445845C1DC5746DAF80C1057F889
:102E0000080F321F242AC160886000F2B180132AA3
:102E100040F2A28029681B2ACAF808106968CAF81B
:102E20000C1000F2AC8008350AF11002296811601C
:102E300069685160A9689160C4EB0B020AEB040158
:102E400042F0010299604A60DAF80430484603F023
:102E500001031C43CAF80440FFF7BCFE38462EE7C6
:102E60002B681B2A03606B68436026D800F10803B7
:102E700005F10802F7E63B462A6876461A606A685A
:102E8000D0465A60AA689A6005E7C4EB0B0B08EBC2
:102E900004014BF0010299604A6055F8043C484631
:102EA00003F001031C4345F8044CFFF793FE28464A
:102EB00005E72946FFF728FEDBE6AB68242A836096
:102EC000EB68C36027D000F1100305F11002CAE6D9
:102ED00050F8043C2F4623F003031E44DBE629464A
:102EE00038467646D046FFF70FFED4E63A4664E70A
:102EF000294638461E46D046FFF706FECBE6AB68AD
:102F0000242ACAF81030EB68CAF814301AD01035E9
:102F10000AF11803B0E72A6900F118030261696930
:102F200005F1180241619EE67C040020A968242A6C
:102F3000CAF81010E968CAF814100FD010350AF159
:102F400018023AE72A690AF12003CAF818206A69C8
:102F50001835CAF81C208FE73A4667E729690AF155
:102F60002002CAF8181069691835CAF81C1024E73D
:102F7000294638460193FFF7C7FD019B5CE7A96826
:102F8000242ACAF81010E968CAF8141003D01035C2
:102F90000AF118024AE729690AF12002CAF8181052
:102FA00069691835CAF81C1040E700BF38B5074CEE
:102FB0000023054608462360FDF712FF431C00D09E
:102FC00038BD2368002BFBD02B6038BDD80800200B
:102FD00020F0030110F00300C0F1000051F8043BA1
:102FE00000F1040C4FEACC0C6FF000021CBF22FA77
:102FF0000CF213434FF0010C4CEA0C2C4CEA0C4C35
:10300000A3EB0C0222EA030212EACC1204BF51F82D
:10301000043B0430F4D0C2F1000102EA0102B2FA2A
:1030200082F2C2F11F0200EBD200704753B94AB9D5
:10303000002908BF00281CBF4FF0FF314FF0FF30C0
:1030400000F082B9ADF1080C6DE904CE00F006F88D
:10305000DDF804E0DDE9022304B070472DE9F04F0C
:103060008C460C460546099E002B4FD18A421746D6
:103070006BD9B2FA82FEBEF1000F0BD0CEF1200563
:1030800020FA05F501FA0EF345EA030C02FA0EF7F1
:1030900000FA0EF5390CBCFBF1F0BAB201FB10C31B
:1030A00000FB02F84FEA154C4CEA0344A04509D94D
:1030B000E41900F1FF3380F02881A04540F225811A
:1030C00002383C44C8EB0404B4FBF1F301FB134C9D
:1030D00003FB02F2ACB244EA0C418A4209D9C91995
:1030E00003F1FF3480F00F818A4240F20C81023BF1
:1030F00039448A1A43EA00400021002E63D022FAA4
:103100000EF2002386E80C00BDE8F08F8B4207D951
:10311000002E56D0002186E811000846BDE8F08F49
:10312000B3FA83F1002940F09380A34202D3824294
:1031300000F2FE80851A64EB03039C460120002EFA
:1031400041D086E82010BDE8F08F12B90127B7FB07
:10315000F2F7B7FA87FEBEF1000F36D1E41B4FEA53
:1031600017481FFA87F90121B4FBF8F308FB134451
:1031700009FB03F24FEA154C4CEA0444A24207D97A
:10318000E41903F1FF3002D2A24200F2D3800346D9
:10319000A41AB4FBF8F008FB104809FB00F9ACB224
:1031A00044EA0842914507D9D21900F1FF3402D20E
:1031B000914500F2BA802046C9EB020240EA034082
:1031C0009BE731463046BDE8F08F07FA0EF7CEF1A7
:1031D000200C24FA0CF34FEA1748B3FBF8FA1FFA55
:1031E00087F908FB1A3520FA0CFC04FA0EF40AFBE6
:1031F00009FB4CEA040C4FEA1C4242EA05439B459A
:1032000000FA0EF50AD9DB190AF1FF3280F08B8043
:103210009B4540F28880AAF1020A3B44CBEB0303B2
:10322000B3FBF8F008FB103300FB09F41FFA8CFC29
:103230004CEA03439C4207D9DB1900F1FF326ED2FE
:103240009C426CD902383B441C1B40EA0A418BE784
:10325000C1F1200E8B4022FA0EFC4CEA030C24FA3A
:103260000EF74FEA1C49B7FBF9FA1FFA8CF309FB7A
:103270001A7720FA0EF88C400AFB03F548EA04049A
:103280004FEA144848EA0747BD4202FA01F200FA41
:1032900001FB09D917EB0C070AF1FF3041D2BD42FF
:1032A0003FD9AAF1020A67447F1BB7FBF9F509FB76
:1032B000157705FB03F3A4B244EA0747BB4208D9DC
:1032C00017EB0C0705F1FF3027D2BB4225D9023D91
:1032D000674445EA0A40A0FB0289FF1A4F4545466C
:1032E0004C4614D329D066B3BBEB050367EB040748
:1032F00007FA0EFECB40CF404EEA030386E8880073
:103300000021BDE8F08F2346F3E61846DAE6B8EB75
:10331000020569EB0C040138E5E70546D9E71046DC
:1033200092E78246C0E7924678E702383A4443E79C
:10333000084604E7023B3C442AE7C345E7D33C4642
:10334000D1E73146BDE8F08F704700BF2048656C7B
:103350006C6F2E0D0A5553415254312069732072FF
:10336000656164792E0D0A005468726F74746C651F
:10337000203D2025640A0D0070776D203D202564D6
:103380000A0D000000000000000000010000010024
:103390000000010000010001010000000100000127
:1033A0000000000000010100010000000001000019
:1033B000000000000000000000000100000000010B
:1033C00000010100000000000100000100000001F8
:1033D00001000100000100000001000001000000E8
:1033E000000000002020202020202020202020205D
:1033F00020202020303132333435363738394142BD
:10340000434445460000000030313233343536370E
:10341000383961626364656600000000286E756C6F
:103420006C290000303030303030303030303030C7
:08343000303030304300000091
:0834380024FCFF7F01000000ED
:10344000AAAA000062756666657220686572650DDD
:103450000A00000000000000000000000000000062
:10346000000000000000000000000000000000005C
:103470000000000000000000000000000102030442
:103480000102030406070809020406080000000000
:10349000000000003C030020A40300200C040020D6
:1034A000000000000000000000000000000000001C
:1034B000000000000000000000000000000000000C
:1034C000000000003434000800000000000000008C
:1034D00000000000000000000000000000000000EC
:1034E00000000000000000000000000000000000DC
:1034F00000000000000000000000000000000000CC
:1035000000000000000000000000000000000000BB
:1035100000000000000000000000000000000000AB
:10352000000000000000000000000000000000009B
:10353000000000000000000001000000000000008A
:103540000E33CDAB34126DE6ECDE05000B0000004F
:10355000000000000000000000000000000000006B
:10356000000000000000000000000000000000005B
:10357000000000000000000000000000000000004B
:10358000000000000000000000000000000000003B
:1038B0000000000000000000500000200000000098
:1038C000000000007C0400207C0400208404002010
:1038D000840400208C0400208C0400209404002028
:1038E000940400209C0400209C040020A4040020D8
:1038F000A4040020AC040020AC040020B404002088
:10390000B4040020BC040020BC040020C404002037
:10391000C4040020CC040020CC040020D4040020E7
:10392000D4040020DC040020DC040020E404002097
:10393000E4040020EC040020EC040020F404002047
:10394000F4040020FC040020FC04002004050020F6
:10395000040500200C0500200C05002014050020A3
:10396000140500201C0500201C0500202405002053
:10397000240500202C0500202C0500203405002003
:10398000340500203C0500203C05002044050020B3
:10399000440500204C0500204C0500205405002063
:1039A000540500205C0500205C0500206405002013
:1039B000640500206C0500206C05002074050020C3
:1039C000740500207C0500207C0500208405002073
:1039D000840500208C0500208C0500209405002023
:1039E000940500209C0500209C050020A4050020D3
:1039F000A4050020AC050020AC050020B405002083
:103A0000B4050020BC050020BC050020C405002032
:103A1000C4050020CC050020CC050020D4050020E2
:103A2000D4050020DC050020DC050020E405002092
:103A3000E4050020EC050020EC050020F405002042
:103A4000F4050020FC050020FC05002004060020F1
:103A5000040600200C0600200C060020140600209E
:103A6000140600201C0600201C060020240600204E
:103A7000240600202C0600202C06002034060020FE
:103A8000340600203C0600203C06002044060020AE
:103A9000440600204C0600204C060020540600205E
:103AA000540600205C0600205C060020640600200E
:103AB000640600206C0600206C06002074060020BE
:103AC000740600207C0600207C060020840600206E
:103AD000840600208C0600208C060020940600201E
:103AE000940600209C0600209C060020A4060020CE
:103AF000A4060020AC060020AC060020B40600207E
:103B0000B4060020BC060020BC060020C40600202D
:103B1000C4060020CC060020CC060020D4060020DD
:103B2000D4060020DC060020DC060020E40600208D
:103B3000E4060020EC060020EC060020F40600203D
:103B4000F4060020FC060020FC06002004070020EC
:103B5000040700200C0700200C0700201407002099
:103B6000140700201C0700201C0700202407002049
:103B7000240700202C0700202C07002034070020F9
:103B8000340700203C0700203C07002044070020A9
:103B9000440700204C0700204C0700205407002059
:103BA000540700205C0700205C0700206407002009
:103BB000640700206C0700206C07002074070020B9
:103BC000740700207C0700207C0700208407002069
:103BD000840700208C0700208C0700209407002019
:103BE000940700209C0700209C070020A4070020C9
:103BF000A4070020AC070020AC070020B407002079
:103C0000B4070020BC070020BC070020C407002028
:103C1000C4070020CC070020CC070020D4070020D8
:103C2000D4070020DC070020DC070020E407002088
:103C3000E4070020EC070020EC070020F407002038
:103C4000F4070020FC070020FC07002004080020E7
:103C5000040800200C0800200C0800201408002094
:103C6000140800201C0800201C0800202408002044
:103C7000240800202C0800202C08002034080020F4
:103C8000340800203C0800203C08002044080020A4
:103C9000440800204C0800204C0800205408002054
:103CA000540800205C0800205C0800206408002004
:103CB000640800206C0800206C08002074080020B4
:0C3CC0007408002000000200FFFFFFFF5E
:0400000508000000EF
:00000001FF
